{
  "contractName": "Regulator",
  "abi": [
    {
      "constant": true,
      "inputs": [
        {
          "name": "",
          "type": "address"
        }
      ],
      "name": "balances",
      "outputs": [
        {
          "name": "",
          "type": "uint256"
        }
      ],
      "payable": false,
      "stateMutability": "view",
      "type": "function"
    },
    {
      "inputs": [],
      "payable": false,
      "stateMutability": "nonpayable",
      "type": "constructor"
    },
    {
      "payable": true,
      "stateMutability": "payable",
      "type": "fallback"
    },
    {
      "anonymous": false,
      "inputs": [
        {
          "indexed": false,
          "name": "msgSender",
          "type": "address"
        },
        {
          "indexed": false,
          "name": "msg",
          "type": "bytes32"
        },
        {
          "indexed": false,
          "name": "timestamp",
          "type": "uint256"
        }
      ],
      "name": "ProposalSubmitted",
      "type": "event"
    },
    {
      "anonymous": false,
      "inputs": [
        {
          "indexed": false,
          "name": "msgSender",
          "type": "address"
        },
        {
          "indexed": false,
          "name": "msg",
          "type": "bytes32"
        },
        {
          "indexed": false,
          "name": "timestamp",
          "type": "uint256"
        }
      ],
      "name": "ProposalAccepted_Emergency",
      "type": "event"
    },
    {
      "anonymous": false,
      "inputs": [
        {
          "indexed": false,
          "name": "msgSender",
          "type": "address"
        },
        {
          "indexed": false,
          "name": "msg",
          "type": "bytes32"
        },
        {
          "indexed": false,
          "name": "timestamp",
          "type": "uint256"
        }
      ],
      "name": "ProposalAccepted",
      "type": "event"
    },
    {
      "anonymous": false,
      "inputs": [
        {
          "indexed": false,
          "name": "msgSender",
          "type": "address"
        },
        {
          "indexed": false,
          "name": "msg",
          "type": "bytes32"
        },
        {
          "indexed": false,
          "name": "timestamp",
          "type": "uint256"
        }
      ],
      "name": "ProposalRejected",
      "type": "event"
    },
    {
      "anonymous": false,
      "inputs": [
        {
          "indexed": false,
          "name": "msgSender",
          "type": "address"
        },
        {
          "indexed": false,
          "name": "msg",
          "type": "bytes32"
        },
        {
          "indexed": false,
          "name": "timestamp",
          "type": "uint256"
        }
      ],
      "name": "AddCRO",
      "type": "event"
    },
    {
      "anonymous": false,
      "inputs": [
        {
          "indexed": false,
          "name": "msgSender",
          "type": "address"
        },
        {
          "indexed": false,
          "name": "msg",
          "type": "bytes32"
        },
        {
          "indexed": false,
          "name": "timestamp",
          "type": "uint256"
        }
      ],
      "name": "UpdateCROStatus",
      "type": "event"
    },
    {
      "anonymous": false,
      "inputs": [
        {
          "indexed": false,
          "name": "msgSender",
          "type": "address"
        },
        {
          "indexed": false,
          "name": "msg",
          "type": "bytes32"
        },
        {
          "indexed": false,
          "name": "timestamp",
          "type": "uint256"
        }
      ],
      "name": "RegulatoryContractDeployed",
      "type": "event"
    },
    {
      "anonymous": false,
      "inputs": [
        {
          "indexed": false,
          "name": "msgSender",
          "type": "address"
        },
        {
          "indexed": false,
          "name": "msg",
          "type": "bytes32"
        },
        {
          "indexed": false,
          "name": "timestamp",
          "type": "uint256"
        }
      ],
      "name": "ClinicalTrialContractDeployed",
      "type": "event"
    },
    {
      "anonymous": false,
      "inputs": [
        {
          "indexed": false,
          "name": "msgSender",
          "type": "address"
        },
        {
          "indexed": false,
          "name": "msg",
          "type": "bytes"
        },
        {
          "indexed": false,
          "name": "timestamp",
          "type": "uint256"
        }
      ],
      "name": "UploadTrialProtocol",
      "type": "event"
    },
    {
      "anonymous": false,
      "inputs": [
        {
          "indexed": false,
          "name": "msgSender",
          "type": "address"
        },
        {
          "indexed": false,
          "name": "msg",
          "type": "address"
        },
        {
          "indexed": false,
          "name": "timestamp",
          "type": "uint256"
        }
      ],
      "name": "SigVerification",
      "type": "event"
    },
    {
      "anonymous": false,
      "inputs": [
        {
          "indexed": false,
          "name": "msgSender",
          "type": "address"
        },
        {
          "indexed": false,
          "name": "msg",
          "type": "bytes32"
        },
        {
          "indexed": false,
          "name": "timestamp",
          "type": "uint256"
        }
      ],
      "name": "CustomerPolicySubmitted",
      "type": "event"
    },
    {
      "anonymous": false,
      "inputs": [
        {
          "indexed": false,
          "name": "msgSender",
          "type": "address"
        },
        {
          "indexed": false,
          "name": "msg",
          "type": "bytes"
        },
        {
          "indexed": false,
          "name": "timestamp",
          "type": "uint256"
        }
      ],
      "name": "CustomerPolicySubmitted_agent",
      "type": "event"
    },
    {
      "anonymous": false,
      "inputs": [
        {
          "indexed": false,
          "name": "msgSender",
          "type": "address"
        },
        {
          "indexed": false,
          "name": "msg",
          "type": "bytes32"
        },
        {
          "indexed": false,
          "name": "timestamp",
          "type": "uint256"
        }
      ],
      "name": "AcceptedProposalOfSubmittedPolicy",
      "type": "event"
    },
    {
      "constant": false,
      "inputs": [
        {
          "name": "_customerName",
          "type": "bytes32"
        },
        {
          "name": "_dob",
          "type": "uint32"
        },
        {
          "name": "_age",
          "type": "bytes32"
        },
        {
          "name": "_occupation",
          "type": "bytes32"
        },
        {
          "name": "gender",
          "type": "bytes32"
        },
        {
          "name": "martialstatus",
          "type": "bytes32"
        },
        {
          "name": "policyType",
          "type": "bytes32"
        },
        {
          "name": "term",
          "type": "bytes32"
        },
        {
          "name": "sumassured",
          "type": "bytes32"
        },
        {
          "name": "diseasescovered",
          "type": "bytes32"
        }
      ],
      "name": "submitCustomerPolicy1",
      "outputs": [],
      "payable": false,
      "stateMutability": "nonpayable",
      "type": "function"
    },
    {
      "constant": false,
      "inputs": [
        {
          "name": "_customerName",
          "type": "bytes32"
        },
        {
          "name": "_dob",
          "type": "uint32"
        },
        {
          "name": "_age",
          "type": "bytes32"
        },
        {
          "name": "_occupation",
          "type": "bytes32"
        }
      ],
      "name": "submitCustomerPolicy",
      "outputs": [],
      "payable": false,
      "stateMutability": "nonpayable",
      "type": "function"
    },
    {
      "constant": false,
      "inputs": [
        {
          "name": "_drugName",
          "type": "bytes32"
        },
        {
          "name": "_startDate",
          "type": "uint32"
        },
        {
          "name": "_endDate",
          "type": "uint32"
        },
        {
          "name": "_patientDetails",
          "type": "bytes32"
        }
      ],
      "name": "submitProposal",
      "outputs": [],
      "payable": false,
      "stateMutability": "nonpayable",
      "type": "function"
    },
    {
      "constant": false,
      "inputs": [
        {
          "name": "_drugName",
          "type": "bytes32"
        },
        {
          "name": "_startDate",
          "type": "uint32"
        },
        {
          "name": "_endDate",
          "type": "uint32"
        },
        {
          "name": "_patientDetails",
          "type": "bytes32"
        },
        {
          "name": "Diseases",
          "type": "bytes16"
        },
        {
          "name": "cost_of_disease",
          "type": "bytes16"
        },
        {
          "name": "spell_of_disease",
          "type": "bytes16"
        },
        {
          "name": "cost_per_day",
          "type": "bytes16"
        },
        {
          "name": "room_rent",
          "type": "bytes16"
        },
        {
          "name": "days_spent_hospital",
          "type": "bytes16"
        }
      ],
      "name": "submitProposalclaim1",
      "outputs": [],
      "payable": false,
      "stateMutability": "nonpayable",
      "type": "function"
    },
    {
      "constant": true,
      "inputs": [
        {
          "name": "_id",
          "type": "uint32"
        },
        {
          "name": "_docHash",
          "type": "bytes"
        }
      ],
      "name": "submitTrialProtocolDocument",
      "outputs": [
        {
          "name": "_docIpfsHash",
          "type": "bytes"
        }
      ],
      "payable": false,
      "stateMutability": "view",
      "type": "function"
    },
    {
      "constant": true,
      "inputs": [],
      "name": "getProposalsCount",
      "outputs": [
        {
          "name": "_counter",
          "type": "uint256"
        }
      ],
      "payable": false,
      "stateMutability": "view",
      "type": "function"
    },
    {
      "constant": true,
      "inputs": [
        {
          "name": "_id",
          "type": "uint32"
        }
      ],
      "name": "getProposalById",
      "outputs": [
        {
          "name": "_croAddr",
          "type": "address"
        },
        {
          "name": "_drugName",
          "type": "bytes32"
        },
        {
          "name": "_startDate",
          "type": "uint32"
        },
        {
          "name": "_endDate",
          "type": "uint32"
        },
        {
          "name": "_ipfsHash",
          "type": "bytes"
        },
        {
          "name": "_status",
          "type": "int256"
        },
        {
          "name": "_trial",
          "type": "address"
        },
        {
          "name": "_proposals_Length",
          "type": "uint256"
        },
        {
          "name": "_patientDetails",
          "type": "bytes32"
        }
      ],
      "payable": false,
      "stateMutability": "view",
      "type": "function"
    },
    {
      "constant": true,
      "inputs": [
        {
          "name": "_id",
          "type": "uint32"
        }
      ],
      "name": "claim_getProposalById",
      "outputs": [
        {
          "name": "_croAddr",
          "type": "address"
        },
        {
          "name": "_drugName",
          "type": "bytes32"
        },
        {
          "name": "_startDate",
          "type": "uint32"
        },
        {
          "name": "_endDate",
          "type": "uint32"
        },
        {
          "name": "_ipfsHash",
          "type": "bytes"
        },
        {
          "name": "_status",
          "type": "int256"
        },
        {
          "name": "_trial",
          "type": "address"
        },
        {
          "name": "_proposals_Length",
          "type": "uint256"
        },
        {
          "name": "_patientDetails",
          "type": "bytes32"
        }
      ],
      "payable": false,
      "stateMutability": "view",
      "type": "function"
    },
    {
      "constant": true,
      "inputs": [
        {
          "name": "_id",
          "type": "uint32"
        }
      ],
      "name": "claim_Patient_cost_getProposalById",
      "outputs": [
        {
          "name": "_diseaseDiagonised",
          "type": "bytes16"
        },
        {
          "name": "_diseaseCovered",
          "type": "bytes16"
        },
        {
          "name": "_spell_disease_covered",
          "type": "bytes16"
        },
        {
          "name": "_cost_per_day",
          "type": "bytes16"
        },
        {
          "name": "_room_rent",
          "type": "bytes16"
        },
        {
          "name": "_stay_in_hospital",
          "type": "bytes16"
        }
      ],
      "payable": false,
      "stateMutability": "view",
      "type": "function"
    },
    {
      "constant": true,
      "inputs": [
        {
          "name": "_id",
          "type": "uint32"
        }
      ],
      "name": "getProposalOfSubmittedPolicy",
      "outputs": [
        {
          "name": "_customer",
          "type": "address"
        },
        {
          "name": "_customerName",
          "type": "bytes32"
        },
        {
          "name": "_dob",
          "type": "uint32"
        },
        {
          "name": "_age",
          "type": "bytes32"
        },
        {
          "name": "_Occupation",
          "type": "bytes32"
        },
        {
          "name": "_status",
          "type": "int256"
        },
        {
          "name": "_gender",
          "type": "bytes32"
        },
        {
          "name": "_martialStatus",
          "type": "bytes32"
        },
        {
          "name": "policyType",
          "type": "bytes32"
        },
        {
          "name": "term",
          "type": "bytes32"
        },
        {
          "name": "sumassured",
          "type": "bytes32"
        },
        {
          "name": "DiseaseCovered",
          "type": "bytes32"
        }
      ],
      "payable": false,
      "stateMutability": "view",
      "type": "function"
    },
    {
      "constant": false,
      "inputs": [
        {
          "name": "_id",
          "type": "uint256"
        }
      ],
      "name": "acceptProposalOfSubmittedPolicy",
      "outputs": [],
      "payable": false,
      "stateMutability": "nonpayable",
      "type": "function"
    },
    {
      "constant": false,
      "inputs": [
        {
          "name": "JsonHash",
          "type": "bytes"
        }
      ],
      "name": "agent_submitting_customer_policy",
      "outputs": [],
      "payable": false,
      "stateMutability": "nonpayable",
      "type": "function"
    },
    {
      "constant": true,
      "inputs": [
        {
          "name": "_id",
          "type": "uint32"
        }
      ],
      "name": "getProposalofSubmittedPolicy_agent",
      "outputs": [
        {
          "name": "_customer",
          "type": "address"
        },
        {
          "name": "hash",
          "type": "bytes"
        },
        {
          "name": "_status",
          "type": "int256"
        }
      ],
      "payable": false,
      "stateMutability": "view",
      "type": "function"
    },
    {
      "constant": false,
      "inputs": [
        {
          "name": "_sender",
          "type": "address"
        },
        {
          "name": "_amount",
          "type": "uint256"
        }
      ],
      "name": "acceptProposal_for_Pharmacy",
      "outputs": [],
      "payable": true,
      "stateMutability": "payable",
      "type": "function"
    },
    {
      "constant": false,
      "inputs": [
        {
          "name": "_sender",
          "type": "address"
        },
        {
          "name": "_amount",
          "type": "uint256"
        }
      ],
      "name": "acceptProposal_for_Emergency",
      "outputs": [],
      "payable": true,
      "stateMutability": "payable",
      "type": "function"
    },
    {
      "constant": false,
      "inputs": [
        {
          "name": "_sender",
          "type": "address"
        },
        {
          "name": "completeDetails",
          "type": "bytes32"
        }
      ],
      "name": "EmergencyDetails",
      "outputs": [],
      "payable": false,
      "stateMutability": "nonpayable",
      "type": "function"
    },
    {
      "constant": false,
      "inputs": [
        {
          "name": "_sender",
          "type": "address"
        },
        {
          "name": "_amount",
          "type": "uint256"
        }
      ],
      "name": "acceptProposal1",
      "outputs": [],
      "payable": true,
      "stateMutability": "payable",
      "type": "function"
    },
    {
      "constant": true,
      "inputs": [
        {
          "name": "_receiver",
          "type": "address"
        }
      ],
      "name": "getBalance",
      "outputs": [
        {
          "name": "",
          "type": "uint256"
        }
      ],
      "payable": false,
      "stateMutability": "view",
      "type": "function"
    },
    {
      "constant": false,
      "inputs": [
        {
          "name": "_id",
          "type": "uint256"
        }
      ],
      "name": "rejectProposal",
      "outputs": [],
      "payable": false,
      "stateMutability": "nonpayable",
      "type": "function"
    },
    {
      "constant": false,
      "inputs": [
        {
          "name": "_name",
          "type": "bytes32"
        },
        {
          "name": "_url",
          "type": "bytes32"
        }
      ],
      "name": "submitCro",
      "outputs": [],
      "payable": false,
      "stateMutability": "nonpayable",
      "type": "function"
    },
    {
      "constant": false,
      "inputs": [
        {
          "name": "_addr",
          "type": "address"
        },
        {
          "name": "_status",
          "type": "uint8"
        }
      ],
      "name": "changeCroStatus",
      "outputs": [],
      "payable": false,
      "stateMutability": "nonpayable",
      "type": "function"
    },
    {
      "constant": true,
      "inputs": [],
      "name": "getCrosCounter",
      "outputs": [
        {
          "name": "_counter",
          "type": "uint256"
        }
      ],
      "payable": false,
      "stateMutability": "view",
      "type": "function"
    },
    {
      "constant": true,
      "inputs": [
        {
          "name": "_id",
          "type": "uint256"
        }
      ],
      "name": "getCroById",
      "outputs": [
        {
          "name": "_name",
          "type": "bytes32"
        },
        {
          "name": "_url",
          "type": "bytes32"
        },
        {
          "name": "_addr",
          "type": "address"
        },
        {
          "name": "_status",
          "type": "int256"
        }
      ],
      "payable": false,
      "stateMutability": "view",
      "type": "function"
    },
    {
      "constant": true,
      "inputs": [
        {
          "name": "r",
          "type": "bytes32"
        },
        {
          "name": "s",
          "type": "bytes32"
        },
        {
          "name": "v",
          "type": "uint8"
        },
        {
          "name": "hash",
          "type": "bytes32"
        }
      ],
      "name": "verifySignature",
      "outputs": [
        {
          "name": "",
          "type": "address"
        }
      ],
      "payable": false,
      "stateMutability": "view",
      "type": "function"
    }
  ],
  "bytecode": "0x608060405234801561001057600080fd5b50336000806101000a81548173ffffffffffffffffffffffffffffffffffffffff021916908373ffffffffffffffffffffffffffffffffffffffff1602179055507f60f99522b536c17416c6437629f9457c53e08255757ed53dc170c464a6acc9023342604051808373ffffffffffffffffffffffffffffffffffffffff1673ffffffffffffffffffffffffffffffffffffffff168152602001807f4d696e65640000000000000000000000000000000000000000000000000000008152506020018281526020019250505060405180910390a16141e0806100f36000396000f300608060405260043610610149576000357c0100000000000000000000000000000000000000000000000000000000900463ffffffff168063150fdadf1461014b57806327e235e314610299578063371a4ea8146102f057806340fc87561461045457806346d74f39146104ee5780634ea7660014610652578063598c7c4b146107665780635b48e66a146107a65780636801ad17146107f657806384334497146108a75780638c23dd8e146109065780638ee553cc1461095757806398e527d3146109e95780639c4fbdfb14610a14578063a7ddfc3b14610a7d578063ad615f4014610aaa578063b2769abb14610ad5578063bc28d87814610be2578063d65e782914610c0f578063e87ece2b14610cf5578063ea2be49b14610de7578063ed0c181214610e27578063f8b2cb4f14610e67578063f94a322314610ebe578063fb2503b514610efd575b005b34801561015757600080fd5b5061017c600480360381019080803563ffffffff169060200190929190505050610f5a565b60405180876fffffffffffffffffffffffffffffffff19166fffffffffffffffffffffffffffffffff19168152602001866fffffffffffffffffffffffffffffffff19166fffffffffffffffffffffffffffffffff19168152602001856fffffffffffffffffffffffffffffffff19166fffffffffffffffffffffffffffffffff19168152602001846fffffffffffffffffffffffffffffffff19166fffffffffffffffffffffffffffffffff19168152602001836fffffffffffffffffffffffffffffffff19166fffffffffffffffffffffffffffffffff19168152602001826fffffffffffffffffffffffffffffffff19166fffffffffffffffffffffffffffffffff19168152602001965050505050505060405180910390f35b3480156102a557600080fd5b506102da600480360381019080803573ffffffffffffffffffffffffffffffffffffffff1690602001909291905050506111b8565b6040518082815260200191505060405180910390f35b3480156102fc57600080fd5b50610321600480360381019080803563ffffffff1690602001909291905050506111d0565b604051808a73ffffffffffffffffffffffffffffffffffffffff1673ffffffffffffffffffffffffffffffffffffffff16815260200189600019166000191681526020018863ffffffff1663ffffffff1681526020018763ffffffff1663ffffffff168152602001806020018681526020018573ffffffffffffffffffffffffffffffffffffffff1673ffffffffffffffffffffffffffffffffffffffff1681526020018481526020018360001916600019168152602001828103825287818151815260200191508051906020019080838360005b838110156104115780820151818401526020810190506103f6565b50505050905090810190601f16801561043e5780820380516001836020036101000a031916815260200191505b509a505050505050505050505060405180910390f35b34801561046057600080fd5b506104ac60048036038101908080356000191690602001909291908035600019169060200190929190803560ff16906020019092919080356000191690602001909291905050506113fd565b604051808273ffffffffffffffffffffffffffffffffffffffff1673ffffffffffffffffffffffffffffffffffffffff16815260200191505060405180910390f35b3480156104fa57600080fd5b5061051f600480360381019080803563ffffffff16906020019092919050505061153d565b604051808a73ffffffffffffffffffffffffffffffffffffffff1673ffffffffffffffffffffffffffffffffffffffff16815260200189600019166000191681526020018863ffffffff1663ffffffff1681526020018763ffffffff1663ffffffff168152602001806020018681526020018573ffffffffffffffffffffffffffffffffffffffff1673ffffffffffffffffffffffffffffffffffffffff1681526020018481526020018360001916600019168152602001828103825287818151815260200191508051906020019080838360005b8381101561060f5780820151818401526020810190506105f4565b50505050905090810190601f16801561063c5780820380516001836020036101000a031916815260200191505b509a505050505050505050505060405180910390f35b34801561065e57600080fd5b50610683600480360381019080803563ffffffff16906020019092919050505061196a565b604051808d73ffffffffffffffffffffffffffffffffffffffff1673ffffffffffffffffffffffffffffffffffffffff1681526020018c600019166000191681526020018b63ffffffff1663ffffffff1681526020018a6000191660001916815260200189600019166000191681526020018881526020018760001916600019168152602001866000191660001916815260200185600019166000191681526020018460001916600019168152602001836000191660001916815260200182600019166000191681526020019c5050505050505050505050505060405180910390f35b6107a4600480360381019080803573ffffffffffffffffffffffffffffffffffffffff16906020019092919080359060200190929190505050611b51565b005b3480156107b257600080fd5b506107f4600480360381019080803573ffffffffffffffffffffffffffffffffffffffff169060200190929190803560ff169060200190929190505050611c49565b005b34801561080257600080fd5b506108a56004803603810190808035600019169060200190929190803563ffffffff16906020019092919080356000191690602001909291908035600019169060200190929190803560001916906020019092919080356000191690602001909291908035600019169060200190929190803560001916906020019092919080356000191690602001909291908035600019169060200190929190505050611e7c565b005b3480156108b357600080fd5b506109046004803603810190808035600019169060200190929190803563ffffffff169060200190929190803563ffffffff1690602001909291908035600019169060200190929190505050612177565b005b34801561091257600080fd5b50610955600480360381019080803573ffffffffffffffffffffffffffffffffffffffff16906020019092919080356000191690602001909291905050506123bd565b005b34801561096357600080fd5b5061098260048036038101908080359060200190929190505050612546565b60405180856000191660001916815260200184600019166000191681526020018373ffffffffffffffffffffffffffffffffffffffff1673ffffffffffffffffffffffffffffffffffffffff16815260200182815260200194505050505060405180910390f35b3480156109f557600080fd5b506109fe61263a565b6040518082815260200191505060405180910390f35b348015610a2057600080fd5b50610a7b600480360381019080803590602001908201803590602001908080601f0160208091040260200160405190810160405280939291908181526020018383808284378201915050505050509192919290505050612647565b005b348015610a8957600080fd5b50610aa86004803603810190808035906020019092919050505061281a565b005b348015610ab657600080fd5b50610abf612a1f565b6040518082815260200191505060405180910390f35b348015610ae157600080fd5b50610be06004803603810190808035600019169060200190929190803563ffffffff169060200190929190803563ffffffff169060200190929190803560001916906020019092919080356fffffffffffffffffffffffffffffffff1916906020019092919080356fffffffffffffffffffffffffffffffff1916906020019092919080356fffffffffffffffffffffffffffffffff1916906020019092919080356fffffffffffffffffffffffffffffffff1916906020019092919080356fffffffffffffffffffffffffffffffff1916906020019092919080356fffffffffffffffffffffffffffffffff19169060200190929190505050612a2c565b005b348015610bee57600080fd5b50610c0d60048036038101908080359060200190929190505050612f64565b005b348015610c1b57600080fd5b50610c40600480360381019080803563ffffffff1690602001909291905050506131dc565b604051808473ffffffffffffffffffffffffffffffffffffffff1673ffffffffffffffffffffffffffffffffffffffff16815260200180602001838152602001828103825284818151815260200191508051906020019080838360005b83811015610cb8578082015181840152602081019050610c9d565b50505050905090810190601f168015610ce55780820380516001836020036101000a031916815260200191505b5094505050505060405180910390f35b348015610d0157600080fd5b50610d6c600480360381019080803563ffffffff169060200190929190803590602001908201803590602001908080601f016020809104026020016040519081016040528093929190818152602001838380828437820191505050505050919291929050505061333a565b6040518080602001828103825283818151815260200191508051906020019080838360005b83811015610dac578082015181840152602081019050610d91565b50505050905090810190601f168015610dd95780820380516001836020036101000a031916815260200191505b509250505060405180910390f35b610e25600480360381019080803573ffffffffffffffffffffffffffffffffffffffff16906020019092919080359060200190929190505050613607565b005b610e65600480360381019080803573ffffffffffffffffffffffffffffffffffffffff16906020019092919080359060200190929190505050613947565b005b348015610e7357600080fd5b50610ea8600480360381019080803573ffffffffffffffffffffffffffffffffffffffff169060200190929190505050613a45565b6040518082815260200191505060405180910390f35b348015610eca57600080fd5b50610efb60048036038101908080356000191690602001909291908035600019169060200190929190505050613a8e565b005b348015610f0957600080fd5b50610f586004803603810190808035600019169060200190929190803563ffffffff16906020019092919080356000191690602001909291908035600019169060200190929190505050613c27565b005b600080600080600080610f6b613e3a565b6008805490508863ffffffff16101515610f84576111ae565b60028863ffffffff16815481101515610f9957fe5b906000526020600020906003020160c060405190810160405290816000820160009054906101000a9004700100000000000000000000000000000000026fffffffffffffffffffffffffffffffff19166fffffffffffffffffffffffffffffffff191681526020016000820160109054906101000a9004700100000000000000000000000000000000026fffffffffffffffffffffffffffffffff19166fffffffffffffffffffffffffffffffff191681526020016001820160009054906101000a9004700100000000000000000000000000000000026fffffffffffffffffffffffffffffffff19166fffffffffffffffffffffffffffffffff191681526020016001820160109054906101000a9004700100000000000000000000000000000000026fffffffffffffffffffffffffffffffff19166fffffffffffffffffffffffffffffffff191681526020016002820160009054906101000a9004700100000000000000000000000000000000026fffffffffffffffffffffffffffffffff19166fffffffffffffffffffffffffffffffff191681526020016002820160109054906101000a9004700100000000000000000000000000000000026fffffffffffffffffffffffffffffffff19166fffffffffffffffffffffffffffffffff191681525050905080600001519650806020015195508060400151945080606001519350806080015192508060a0015191505b5091939550919395565b60016020528060005260406000206000915090505481565b60008060008060606000806000806111e6613ee3565b6008805490508b63ffffffff161015156111ff576113ef565b60088b63ffffffff1681548110151561121457fe5b906000526020600020906007020161010060405190810160405290816000820160009054906101000a900473ffffffffffffffffffffffffffffffffffffffff1673ffffffffffffffffffffffffffffffffffffffff1673ffffffffffffffffffffffffffffffffffffffff1681526020016001820154600019166000191681526020016002820160009054906101000a900463ffffffff1663ffffffff1663ffffffff1681526020016002820160049054906101000a900463ffffffff1663ffffffff1663ffffffff168152602001600382018054600181600116156101000203166002900480601f01602080910402602001604051908101604052809291908181526020018280546001816001161561010002031660029004801561137c5780601f106113515761010080835404028352916020019161137c565b820191906000526020600020905b81548152906001019060200180831161135f57829003601f168201915b50505050508152602001600482015481526020016005820154600019166000191681526020016006820154600019166000191681525050905080600001519950806020015198508060400151975080606001519650806080015195508060a00151945060088054905092508060c0015191505b509193959799909294969850565b6000606060006040805190810160405280601c81526020017f19457468657265756d205369676e6564204d6573736167653a0a333200000000815250915081846040518083805190602001908083835b602083101515611472578051825260208201915060208101905060208303925061144d565b6001836020036101000a03801982511681845116808217855250505050505090500182600019166000191681526020019250505060405180910390209050600184868989604051600081526020016040526040518085600019166000191681526020018460ff1660ff1681526020018360001916600019168152602001826000191660001916815260200194505050505060206040516020810390808403906000865af1158015611527573d6000803e3d6000fd5b5050506020604051035192505050949350505050565b6000806000806060600080600080611553613ee3565b61155b613e3a565b6008805490508c63ffffffff161015156115745761195b565b60088c63ffffffff1681548110151561158957fe5b906000526020600020906007020161010060405190810160405290816000820160009054906101000a900473ffffffffffffffffffffffffffffffffffffffff1673ffffffffffffffffffffffffffffffffffffffff1673ffffffffffffffffffffffffffffffffffffffff1681526020016001820154600019166000191681526020016002820160009054906101000a900463ffffffff1663ffffffff1663ffffffff1681526020016002820160049054906101000a900463ffffffff1663ffffffff1663ffffffff168152602001600382018054600181600116156101000203166002900480601f0160208091040260200160405190810160405280929190818152602001828054600181600116156101000203166002900480156116f15780601f106116c6576101008083540402835291602001916116f1565b820191906000526020600020905b8154815290600101906020018083116116d457829003601f168201915b50505050508152602001600482015481526020016005820154600019166000191681526020016006820154600019166000191681525050915060028c63ffffffff1681548110151561173f57fe5b906000526020600020906003020160c060405190810160405290816000820160009054906101000a9004700100000000000000000000000000000000026fffffffffffffffffffffffffffffffff19166fffffffffffffffffffffffffffffffff191681526020016000820160109054906101000a9004700100000000000000000000000000000000026fffffffffffffffffffffffffffffffff19166fffffffffffffffffffffffffffffffff191681526020016001820160009054906101000a9004700100000000000000000000000000000000026fffffffffffffffffffffffffffffffff19166fffffffffffffffffffffffffffffffff191681526020016001820160109054906101000a9004700100000000000000000000000000000000026fffffffffffffffffffffffffffffffff19166fffffffffffffffffffffffffffffffff191681526020016002820160009054906101000a9004700100000000000000000000000000000000026fffffffffffffffffffffffffffffffff19166fffffffffffffffffffffffffffffffff191681526020016002820160109054906101000a9004700100000000000000000000000000000000026fffffffffffffffffffffffffffffffff19166fffffffffffffffffffffffffffffffff191681525050905081600001519a50816020015199508160400151985081606001519750816080015196508160a0015195508160c0015192505b50509193959799909294969850565b600080600080600080600080600080600080611984613f54565b60048e63ffffffff1681548110151561199957fe5b90600052602060002090600d02016101a060405190810160405290816000820160009054906101000a900473ffffffffffffffffffffffffffffffffffffffff1673ffffffffffffffffffffffffffffffffffffffff1673ffffffffffffffffffffffffffffffffffffffff1681526020016001820154600019166000191681526020016002820160009054906101000a900463ffffffff1663ffffffff1663ffffffff1681526020016003820154600019166000191681526020016004820154600019166000191681526020016005820154815260200160068201548152602001600782015460001916600019168152602001600882015460001916600019168152602001600982015460001916600019168152602001600a82015460001916600019168152602001600b82015460001916600019168152602001600c820154600019166000191681525050905080600001519c5080602001519b5080604001519a5080606001519950806080015198508060a0015197508060e001519650806101000151955080610120015194508061014001519350806101600151925080610180015191505091939597999b5091939597999b565b600073cae8262759fa5bd5e6bc3aa266598f55a81024d490508073ffffffffffffffffffffffffffffffffffffffff166108fc349081150290604051600060405180830381858888f19350505050158015611bb0573d6000803e3d6000fd5b507f833cf2e2e81f29ae43afdfed8e4c3b74c5a64f15aa1cd7efe921f6264f4ed3fa3342604051808373ffffffffffffffffffffffffffffffffffffffff1673ffffffffffffffffffffffffffffffffffffffff168152602001807f456d657267656e637920416d6f756e74205472616e73666572726564000000008152506020018281526020019250505060405180910390a1505050565b60008090505b6007805490508163ffffffff161015611e77578273ffffffffffffffffffffffffffffffffffffffff1660078263ffffffff16815481101515611c8e57fe5b906000526020600020906004020160020160009054906101000a900473ffffffffffffffffffffffffffffffffffffffff1673ffffffffffffffffffffffffffffffffffffffff161415611e6a578160ff1660078263ffffffff16815481101515611cf557fe5b906000526020600020906004020160030181905550600160078263ffffffff16815481101515611d2157fe5b9060005260206000209060040201600301541415611dd1577fd0a366159e9fa1410c9f032dd079ba3daef51d24793fa4122b2ab3ca86afd7d63342604051808373ffffffffffffffffffffffffffffffffffffffff1673ffffffffffffffffffffffffffffffffffffffff168152602001807f417070726f7665640000000000000000000000000000000000000000000000008152506020018281526020019250505060405180910390a1611e65565b7fd0a366159e9fa1410c9f032dd079ba3daef51d24793fa4122b2ab3ca86afd7d63342604051808373ffffffffffffffffffffffffffffffffffffffff1673ffffffffffffffffffffffffffffffffffffffff168152602001807f52656a65637465640000000000000000000000000000000000000000000000008152506020018281526020019250505060405180910390a15b611e77565b8080600101915050611c4f565b505050565b611e84613f54565b33816000019073ffffffffffffffffffffffffffffffffffffffff16908173ffffffffffffffffffffffffffffffffffffffff16815250508a8160200190600019169081600019168152505089816040019063ffffffff16908163ffffffff16815250508881606001906000191690816000191681525050878160800190600019169081600019168152505060008160a001818152505060788160c0018181525050868160e0019060001916908160001916815250508581610100019060001916908160001916815250508481610120019060001916908160001916815250508381610140019060001916908160001916815250508281610160019060001916908160001916815250508181610180019060001916908160001916815250506004819080600181540180825580915050906001820390600052602060002090600d02016000909192909190915060008201518160000160006101000a81548173ffffffffffffffffffffffffffffffffffffffff021916908373ffffffffffffffffffffffffffffffffffffffff1602179055506020820151816001019060001916905560408201518160020160006101000a81548163ffffffff021916908363ffffffff160217905550606082015181600301906000191690556080820151816004019060001916905560a0820151816005015560c0820151816006015560e082015181600701906000191690556101008201518160080190600019169055610120820151816009019060001916905561014082015181600a019060001916905561016082015181600b019060001916905561018082015181600c01906000191690555050507f2ec6db1790b68cd182d655fa171d52e46e0e5d4625f6c74361fd6ddbbbea31c633826020015142604051808473ffffffffffffffffffffffffffffffffffffffff1673ffffffffffffffffffffffffffffffffffffffff1681526020018360001916600019168152602001828152602001935050505060405180910390a15050505050505050505050565b61217f613ee3565b33816000019073ffffffffffffffffffffffffffffffffffffffff16908173ffffffffffffffffffffffffffffffffffffffff1681525050848160200190600019169081600019168152505083816040019063ffffffff16908163ffffffff168152505082816060019063ffffffff16908163ffffffff168152505060008160a0018181525050818160c0019060001916908160001916815250506008819080600181540180825580915050906001820390600052602060002090600702016000909192909190915060008201518160000160006101000a81548173ffffffffffffffffffffffffffffffffffffffff021916908373ffffffffffffffffffffffffffffffffffffffff1602179055506020820151816001019060001916905560408201518160020160006101000a81548163ffffffff021916908363ffffffff16021790555060608201518160020160046101000a81548163ffffffff021916908363ffffffff1602179055506080820151816003019080519060200190612309929190613ff4565b5060a0820151816004015560c0820151816005019060001916905560e082015181600601906000191690555050507f0780bbdd3d2f53165e64fb1c03d865aec14003db7ca2805526e2ca67b9487db933826020015142604051808473ffffffffffffffffffffffffffffffffffffffff1673ffffffffffffffffffffffffffffffffffffffff1681526020018360001916600019168152602001828152602001935050505060405180910390a15050505050565b6123c5614074565b33816000019073ffffffffffffffffffffffffffffffffffffffff16908173ffffffffffffffffffffffffffffffffffffffff1681525050600081602001818152505081816040019060001916908160001916815250506006819080600181540180825580915050906001820390600052602060002090600302016000909192909190915060008201518160000160006101000a81548173ffffffffffffffffffffffffffffffffffffffff021916908373ffffffffffffffffffffffffffffffffffffffff16021790555060208201518160010155604082015181600201906000191690555050507f164f8e8f25b366b322d20f6fe91affcf223fc28cb7a761fb977f5fd5794d6f2c3342604051808373ffffffffffffffffffffffffffffffffffffffff1673ffffffffffffffffffffffffffffffffffffffff168152602001807f456d657267656e637900000000000000000000000000000000000000000000008152506020018281526020019250505060405180910390a1505050565b6000806000806125546140af565b6007805490508610151561256757600080fd5b60078681548110151561257657fe5b9060005260206000209060040201608060405190810160405290816000820154600019166000191681526020016001820154600019166000191681526020016002820160009054906101000a900473ffffffffffffffffffffffffffffffffffffffff1673ffffffffffffffffffffffffffffffffffffffff1673ffffffffffffffffffffffffffffffffffffffff168152602001600382015481525050905080600001519450806020015193508060400151925080606001519150509193509193565b6000600880549050905090565b61264f6140f4565b33816000019073ffffffffffffffffffffffffffffffffffffffff16908173ffffffffffffffffffffffffffffffffffffffff168152505060008160200181815250508181604001819052506005819080600181540180825580915050906001820390600052602060002090600302016000909192909190915060008201518160000160006101000a81548173ffffffffffffffffffffffffffffffffffffffff021916908373ffffffffffffffffffffffffffffffffffffffff160217905550602082015181600101556040820151816002019080519060200190612736929190613ff4565b505050507fc37e03ef8013bccd066a8f2d54c3cf774ab3856f330d11d182a3071e23aba0f333826040015142604051808473ffffffffffffffffffffffffffffffffffffffff1673ffffffffffffffffffffffffffffffffffffffff16815260200180602001838152602001828103825284818151815260200191508051906020019080838360005b838110156127da5780820151818401526020810190506127bf565b50505050905090810190601f1680156128075780820380516001836020036101000a031916815260200191505b5094505050505060405180910390a15050565b6128226140f4565b6005805490508210151561283557600080fd5b60058281548110151561284457fe5b9060005260206000209060030201606060405190810160405290816000820160009054906101000a900473ffffffffffffffffffffffffffffffffffffffff1673ffffffffffffffffffffffffffffffffffffffff1673ffffffffffffffffffffffffffffffffffffffff16815260200160018201548152602001600282018054600181600116156101000203166002900480601f0160208091040260200160405190810160405280929190818152602001828054600181600116156101000203166002900480156129575780601f1061292c57610100808354040283529160200191612957565b820191906000526020600020905b81548152906001019060200180831161293a57829003601f168201915b5050505050815250509050600160058381548110151561297357fe5b9060005260206000209060030201600101819055507f853710febc81523f8d0dd87e1920c32bfe1acb7591fc4f297e28ad3922219f2b3342604051808373ffffffffffffffffffffffffffffffffffffffff1673ffffffffffffffffffffffffffffffffffffffff168152602001807f41636365707465640000000000000000000000000000000000000000000000008152506020018281526020019250505060405180910390a15050565b6000600780549050905090565b612a34613ee3565b612a3c613e3a565b33826000019073ffffffffffffffffffffffffffffffffffffffff16908173ffffffffffffffffffffffffffffffffffffffff16815250508b826020019060001916908160001916815250508a826040019063ffffffff16908163ffffffff168152505089826060019063ffffffff16908163ffffffff168152505060008260a0018181525050888260c0019060001916908160001916815250508781600001906fffffffffffffffffffffffffffffffff191690816fffffffffffffffffffffffffffffffff1916815250508681602001906fffffffffffffffffffffffffffffffff191690816fffffffffffffffffffffffffffffffff1916815250508581604001906fffffffffffffffffffffffffffffffff191690816fffffffffffffffffffffffffffffffff1916815250508481606001906fffffffffffffffffffffffffffffffff191690816fffffffffffffffffffffffffffffffff1916815250508381608001906fffffffffffffffffffffffffffffffff191690816fffffffffffffffffffffffffffffffff191681525050828160a001906fffffffffffffffffffffffffffffffff191690816fffffffffffffffffffffffffffffffff1916815250506008829080600181540180825580915050906001820390600052602060002090600702016000909192909190915060008201518160000160006101000a81548173ffffffffffffffffffffffffffffffffffffffff021916908373ffffffffffffffffffffffffffffffffffffffff1602179055506020820151816001019060001916905560408201518160020160006101000a81548163ffffffff021916908363ffffffff16021790555060608201518160020160046101000a81548163ffffffff021916908363ffffffff1602179055506080820151816003019080519060200190612cf2929190613ff4565b5060a0820151816004015560c0820151816005019060001916905560e082015181600601906000191690555050506002819080600181540180825580915050906001820390600052602060002090600302016000909192909190915060008201518160000160006101000a8154816fffffffffffffffffffffffffffffffff02191690837001000000000000000000000000000000009004021790555060208201518160000160106101000a8154816fffffffffffffffffffffffffffffffff02191690837001000000000000000000000000000000009004021790555060408201518160010160006101000a8154816fffffffffffffffffffffffffffffffff02191690837001000000000000000000000000000000009004021790555060608201518160010160106101000a8154816fffffffffffffffffffffffffffffffff02191690837001000000000000000000000000000000009004021790555060808201518160020160006101000a8154816fffffffffffffffffffffffffffffffff02191690837001000000000000000000000000000000009004021790555060a08201518160020160106101000a8154816fffffffffffffffffffffffffffffffff0219169083700100000000000000000000000000000000900402179055505050507f0780bbdd3d2f53165e64fb1c03d865aec14003db7ca2805526e2ca67b9487db933836020015142604051808473ffffffffffffffffffffffffffffffffffffffff1673ffffffffffffffffffffffffffffffffffffffff1681526020018360001916600019168152602001828152602001935050505060405180910390a1505050505050505050505050565b612f6c613ee3565b60088054905082101515612f7f57600080fd5b6002600883815481101515612f9057fe5b906000526020600020906007020160040181905550600882815481101515612fb457fe5b906000526020600020906007020161010060405190810160405290816000820160009054906101000a900473ffffffffffffffffffffffffffffffffffffffff1673ffffffffffffffffffffffffffffffffffffffff1673ffffffffffffffffffffffffffffffffffffffff1681526020016001820154600019166000191681526020016002820160009054906101000a900463ffffffff1663ffffffff1663ffffffff1681526020016002820160049054906101000a900463ffffffff1663ffffffff1663ffffffff168152602001600382018054600181600116156101000203166002900480601f01602080910402602001604051908101604052809291908181526020018280546001816001161561010002031660029004801561311c5780601f106130f15761010080835404028352916020019161311c565b820191906000526020600020905b8154815290600101906020018083116130ff57829003601f168201915b5050505050815260200160048201548152602001600582015460001916600019168152602001600682015460001916600019168152505090507f3b84ac162fc3c99b2df7b7760d21ec7b35ed27f82cfdc2d68a28e1b13b5345a58160000151826020015184604051808473ffffffffffffffffffffffffffffffffffffffff1673ffffffffffffffffffffffffffffffffffffffff1681526020018360001916600019168152602001828152602001935050505060405180910390a15050565b6000606060006131ea6140f4565b60058563ffffffff168154811015156131ff57fe5b9060005260206000209060030201606060405190810160405290816000820160009054906101000a900473ffffffffffffffffffffffffffffffffffffffff1673ffffffffffffffffffffffffffffffffffffffff1673ffffffffffffffffffffffffffffffffffffffff16815260200160018201548152602001600282018054600181600116156101000203166002900480601f0160208091040260200160405190810160405280929190818152602001828054600181600116156101000203166002900480156133125780601f106132e757610100808354040283529160200191613312565b820191906000526020600020905b8154815290600101906020018083116132f557829003601f168201915b5050505050815250509050806000015193508060200151915080604001519250509193909250565b6060613344613ee3565b6008805490508463ffffffff1610151561335d57613600565b60088463ffffffff1681548110151561337257fe5b906000526020600020906007020161010060405190810160405290816000820160009054906101000a900473ffffffffffffffffffffffffffffffffffffffff1673ffffffffffffffffffffffffffffffffffffffff1673ffffffffffffffffffffffffffffffffffffffff1681526020016001820154600019166000191681526020016002820160009054906101000a900463ffffffff1663ffffffff1663ffffffff1681526020016002820160049054906101000a900463ffffffff1663ffffffff1663ffffffff168152602001600382018054600181600116156101000203166002900480601f0160208091040260200160405190810160405280929190818152602001828054600181600116156101000203166002900480156134da5780601f106134af576101008083540402835291602001916134da565b820191906000526020600020905b8154815290600101906020018083116134bd57829003601f168201915b505050505081526020016004820154815260200160058201546000191660001916815260200160068201546000191660001916815250509050828160800181905250806080015191507fe9f5c2c5764f71d4bade320ab7bae394f9eec12984930a09249dee6d92ea8b2d33826080015142604051808473ffffffffffffffffffffffffffffffffffffffff1673ffffffffffffffffffffffffffffffffffffffff16815260200180602001838152602001828103825284818151815260200191508051906020019080838360005b838110156135c35780820151818401526020810190506135a8565b50505050905090810190601f1680156135f05780820380516001836020036101000a031916815260200191505b5094505050505060405180910390a15b5092915050565b6000613611613ee3565b60008092506008805490508310151561362957600080fd5b6008600081548110151561363957fe5b906000526020600020906007020161010060405190810160405290816000820160009054906101000a900473ffffffffffffffffffffffffffffffffffffffff1673ffffffffffffffffffffffffffffffffffffffff1673ffffffffffffffffffffffffffffffffffffffff1681526020016001820154600019166000191681526020016002820160009054906101000a900463ffffffff1663ffffffff1663ffffffff1681526020016002820160049054906101000a900463ffffffff1663ffffffff1663ffffffff168152602001600382018054600181600116156101000203166002900480601f0160208091040260200160405190810160405280929190818152602001828054600181600116156101000203166002900480156137a15780601f10613776576101008083540402835291602001916137a1565b820191906000526020600020905b81548152906001019060200180831161378457829003601f168201915b50505050508152602001600482015481526020016005820154600019166000191681526020016006820154600019166000191681525050915060018260a0015114156137ec57600080fd5b83600160003373ffffffffffffffffffffffffffffffffffffffff1673ffffffffffffffffffffffffffffffffffffffff16815260200190815260200160002060008282540392505081905550816000015173ffffffffffffffffffffffffffffffffffffffff166108fc349081150290604051600060405180830381858888f19350505050158015613883573d6000803e3d6000fd5b50349050600160088481548110151561389857fe5b9060005260206000209060070201600401819055507f164f8e8f25b366b322d20f6fe91affcf223fc28cb7a761fb977f5fd5794d6f2c3342604051808373ffffffffffffffffffffffffffffffffffffffff1673ffffffffffffffffffffffffffffffffffffffff168152602001807f5472616e736665727265642076696120545041000000000000000000000000008152506020018281526020019250505060405180910390a15050505050565b6000806000915073cae8262759fa5bd5e6bc3aa266598f55a81024d490508073ffffffffffffffffffffffffffffffffffffffff166108fc349081150290604051600060405180830381858888f193505050501580156139ab573d6000803e3d6000fd5b507f833cf2e2e81f29ae43afdfed8e4c3b74c5a64f15aa1cd7efe921f6264f4ed3fa3342604051808373ffffffffffffffffffffffffffffffffffffffff1673ffffffffffffffffffffffffffffffffffffffff168152602001807f506861726d61637920416d6f756e74205472616e7366657272656400000000008152506020018281526020019250505060405180910390a150505050565b6000600160008373ffffffffffffffffffffffffffffffffffffffff1673ffffffffffffffffffffffffffffffffffffffff168152602001908152602001600020549050919050565b613a966140af565b8281600001906000191690816000191681525050818160200190600019169081600019168152505033816040019073ffffffffffffffffffffffffffffffffffffffff16908173ffffffffffffffffffffffffffffffffffffffff1681525050600081606001818152505060078190806001815401808255809150509060018203906000526020600020906004020160009091929091909150600082015181600001906000191690556020820151816001019060001916905560408201518160020160006101000a81548173ffffffffffffffffffffffffffffffffffffffff021916908373ffffffffffffffffffffffffffffffffffffffff160217905550606082015181600301555050507f4692aac2d0f6b8fd9e4dd5bd1b720129986808c1005bd78af4a8190337c8542233826000015142604051808473ffffffffffffffffffffffffffffffffffffffff1673ffffffffffffffffffffffffffffffffffffffff1681526020018360001916600019168152602001828152602001935050505060405180910390a1505050565b613c2f61412c565b33816000019073ffffffffffffffffffffffffffffffffffffffff16908173ffffffffffffffffffffffffffffffffffffffff1681525050848160200190600019169081600019168152505083816040019063ffffffff16908163ffffffff16815250508281606001906000191690816000191681525050818160800190600019169081600019168152505060008160a001818152505060788160c00181815250506003819080600181540180825580915050906001820390600052602060002090600702016000909192909190915060008201518160000160006101000a81548173ffffffffffffffffffffffffffffffffffffffff021916908373ffffffffffffffffffffffffffffffffffffffff1602179055506020820151816001019060001916905560408201518160020160006101000a81548163ffffffff021916908363ffffffff160217905550606082015181600301906000191690556080820151816004019060001916905560a0820151816005015560c082015181600601555050507f2ec6db1790b68cd182d655fa171d52e46e0e5d4625f6c74361fd6ddbbbea31c633826020015142604051808473ffffffffffffffffffffffffffffffffffffffff1673ffffffffffffffffffffffffffffffffffffffff1681526020018360001916600019168152602001828152602001935050505060405180910390a15050505050565b60c06040519081016040528060006fffffffffffffffffffffffffffffffff1916815260200160006fffffffffffffffffffffffffffffffff1916815260200160006fffffffffffffffffffffffffffffffff1916815260200160006fffffffffffffffffffffffffffffffff1916815260200160006fffffffffffffffffffffffffffffffff1916815260200160006fffffffffffffffffffffffffffffffff191681525090565b61010060405190810160405280600073ffffffffffffffffffffffffffffffffffffffff16815260200160008019168152602001600063ffffffff168152602001600063ffffffff168152602001606081526020016000815260200160008019168152602001600080191681525090565b6101a060405190810160405280600073ffffffffffffffffffffffffffffffffffffffff16815260200160008019168152602001600063ffffffff168152602001600080191681526020016000801916815260200160008152602001600081526020016000801916815260200160008019168152602001600080191681526020016000801916815260200160008019168152602001600080191681525090565b828054600181600116156101000203166002900490600052602060002090601f016020900481019282601f1061403557805160ff1916838001178555614063565b82800160010185558215614063579182015b82811115614062578251825591602001919060010190614047565b5b509050614070919061418f565b5090565b606060405190810160405280600073ffffffffffffffffffffffffffffffffffffffff16815260200160008152602001600080191681525090565b6080604051908101604052806000801916815260200160008019168152602001600073ffffffffffffffffffffffffffffffffffffffff168152602001600081525090565b606060405190810160405280600073ffffffffffffffffffffffffffffffffffffffff16815260200160008152602001606081525090565b60e060405190810160405280600073ffffffffffffffffffffffffffffffffffffffff16815260200160008019168152602001600063ffffffff168152602001600080191681526020016000801916815260200160008152602001600081525090565b6141b191905b808211156141ad576000816000905550600101614195565b5090565b905600a165627a7a72305820cec0e671c1f877f550500b56bec5c73010f0716e9af62854358156c7c1650c650029",
  "source": "pragma solidity ^0.4.23;\n\nimport \"./ClinicalTrial.sol\";\n\ncontract Regulator {\n\n\n    function () public payable {}\n   address owner;\n   int constant STATUS_SUBMITTED = 0;\n   int constant STATUS_ACCEPTED  = 1;\n   int constant STATUS_REJECTED  = 2;\n\n   mapping (address => uint256) public balances;\n\n   event ProposalSubmitted(address msgSender,bytes32 msg,uint timestamp);\n   event ProposalAccepted_Emergency (address msgSender,bytes32 msg,uint timestamp);\n   event ProposalAccepted (address msgSender,bytes32 msg,uint timestamp);\n   event ProposalRejected (address msgSender,bytes32 msg,uint timestamp);\n\n   event AddCRO (address msgSender,bytes32 msg,uint timestamp);\n   event UpdateCROStatus (address msgSender,bytes32 msg,uint timestamp);\n   event RegulatoryContractDeployed (address msgSender,bytes32 msg,uint timestamp);\n   event ClinicalTrialContractDeployed (address msgSender,bytes32 msg,uint timestamp);\n   event UploadTrialProtocol (address msgSender,bytes msg,uint timestamp);\n   event SigVerification(address msgSender,address msg,uint timestamp);\n\n   event CustomerPolicySubmitted(address msgSender,bytes32 msg,uint timestamp);\n      event CustomerPolicySubmitted_agent(address msgSender,bytes msg,uint timestamp);\n      //event CustomerPolicySubmitted_agent(address msgSender,bytes msg,uint timestamp);\n\n   event  AcceptedProposalOfSubmittedPolicy(address msgSender,bytes32 msg,uint timestamp);\n\n   struct CroIdentity {\n      bytes32  name;\n      bytes32  url;\n      address addr;\n      int   status;  //values: SUBMITTED, ACCEPTED, REJECTED\n   }\n\n   struct TrialProposal {\n      address croAddr;\n      bytes32  drugName;\n      uint32  startDate;\n      uint32  endDate;\n      bytes  ipfsHash;\n      int   status; // values: SUBMITTED, ACCEPTED, REJECTED\n      //address trial;  // clinical trial contract; 0x0 if none\n      bytes32 patientDetails;\n      bytes32 diseases_diagonised;\n          /*          bytes16 cost_per_disease;\n                    bytes16 spell_per_disease;\n                    bytes16 cost_per_day;\n                    bytes16 room_rent;\n                    bytes16 days_stayed_in_hospital;\n                    */\n\n   }\n\n\n   struct Patient_Info_cost\n   {\n        bytes16 diseases;\n              bytes16 cost_per_disease;\n              bytes16 spell_per_disease;\n              bytes16 cost_per_day;\n              bytes16 room_rent;\n              bytes16 days_stayed_in_hospital;\n\n   }\n   Patient_Info_cost [] cost_of_claim_patient;\n\n\n   /*Customer Information section*/\n   struct Customer\n   {\n     address customerAddr;\n     bytes32 name;\n     //ipfs hash;\n     uint32 DOB;\n     bytes32 age;\n     bytes32 occupation;\n     int status;\n      uint256 payPerMonth;\n   }\n   Customer [] customers;\n\n   struct CustomerInfo\n   {\n        address customerAddr;\n        bytes32 name;\n        uint32 DOB;\n        bytes32 age;\n        bytes32 occupation;\n        int status;\n        uint256 payPerMonth;\n        bytes32 gender;\n        bytes32 MartialStatus;\n        bytes32 policyType;\n        bytes32 term;\n        bytes32 sumassured;\n        bytes32 diseasecovered;\n   }\n\n\n    CustomerInfo [] customersData;\n\n    struct CustomerInfo_Submitted_By_Agent\n    {\n        address customerAddr;\n          int   status; // values: SUBMITTED, ACCEPTED, REJECTED\n        bytes hash_of_data;\n    }\n    CustomerInfo_Submitted_By_Agent [] customersData_By_Agent;\n\n    struct Emergency_Information\n    {\n        address customerAddr;\n        int status; //values: Submitted,Accepted,Rejected\n        bytes32 hash_of_data;\n    }\n    Emergency_Information [] EmergencyData;\n\n\n  /**/\n   CroIdentity   [] cros;\n   TrialProposal [] proposals;\n\n   modifier crosOnly {\n      bool found = false;\n      for(uint32 i=0; i<cros.length; i++) {\n         if(cros[i].addr == msg.sender && cros[i].status == STATUS_ACCEPTED) {\n            found = true;\n            break;\n         }\n      }\n      if(!found) throw;\n      _;\n   }\n\n   modifier ownerOnly {\n      if(msg.sender != owner) throw;\n      _;\n   }\n\n   function Regulator() {\n      owner = msg.sender;\n      RegulatoryContractDeployed(msg.sender,\"Mined\",block.timestamp);\n      //log3(bytes32(msg.sender));\n   }\n\n\n   function submitCustomerPolicy1(bytes32 _customerName, uint32 _dob,bytes32 _age,bytes32 _occupation,bytes32 gender,bytes32 martialstatus,bytes32 policyType,bytes32 term\n    ,bytes32 sumassured,bytes32 diseasescovered)\n   {\n        CustomerInfo memory proposal;\n        proposal.customerAddr= msg.sender;\n        proposal.name= _customerName;\n        proposal.DOB= _dob;\n        proposal.age= _age;\n        proposal.occupation= _occupation;\n        proposal.status= STATUS_SUBMITTED;\n        proposal.payPerMonth= 120;\n        proposal.gender= gender;\n        proposal.MartialStatus= martialstatus;\n        proposal.policyType= policyType;\n        proposal.term= term;\n        proposal.sumassured= sumassured;\n        proposal.diseasecovered= diseasescovered;\n        customersData.push(proposal);\n\n        CustomerPolicySubmitted(msg.sender,proposal.name,block.timestamp);\n   }\n\n   function submitCustomerPolicy(bytes32 _customerName, uint32 _dob,bytes32 _age,bytes32 _occupation)\n   {\n        Customer memory proposal;\n        proposal.customerAddr= msg.sender;\n        proposal.name= _customerName;\n        proposal.DOB= _dob;\n        proposal.age= _age;\n        proposal.occupation= _occupation;\n        proposal.status= STATUS_SUBMITTED;\n        proposal.payPerMonth= 120;\n        customers.push(proposal);\n\n        CustomerPolicySubmitted(msg.sender,proposal.name,block.timestamp);\n   }\n   function submitProposal(bytes32 _drugName, uint32 _startDate, uint32 _endDate,bytes32 _patientDetails) {\n\n      TrialProposal memory proposal;\n      proposal.croAddr   = msg.sender;\n      proposal.drugName  = _drugName;\n      proposal.startDate = _startDate;\n      proposal.endDate   = _endDate;\n      proposal.status    = STATUS_SUBMITTED;\n      proposal.patientDetails = _patientDetails;\n      proposals.push(proposal);\n\n      ProposalSubmitted(msg.sender,proposal.drugName,block.timestamp);\n   }\n\n   //claim submitted by the hospital\n   function submitProposalclaim1(bytes32 _drugName, uint32 _startDate, uint32 _endDate,bytes32 _patientDetails,bytes16 Diseases,bytes16 cost_of_disease,bytes16 spell_of_disease\n   ,bytes16 cost_per_day,bytes16 room_rent,bytes16 days_spent_hospital) {\n\n         TrialProposal memory proposal;\n         Patient_Info_cost memory proposal_cost;\n         proposal.croAddr   = msg.sender;\n         proposal.drugName  = _drugName;\n         proposal.startDate = _startDate;\n         proposal.endDate   = _endDate;\n         proposal.status    = STATUS_SUBMITTED;\n         proposal.patientDetails = _patientDetails;\n         proposal_cost.diseases= Diseases;\n               proposal_cost.cost_per_disease= cost_of_disease;\n               proposal_cost.spell_per_disease= spell_of_disease;\n               proposal_cost.cost_per_day= cost_per_day;\n               proposal_cost.room_rent= room_rent;\n               proposal_cost.days_stayed_in_hospital= days_spent_hospital;\n\n\n\n         proposals.push(proposal);\n         cost_of_claim_patient.push(proposal_cost);\n\n         ProposalSubmitted(msg.sender,proposal.drugName,block.timestamp);\n      }\n\n\n\n\n   function submitTrialProtocolDocument(uint32 _id, bytes _docHash) constant returns (bytes _docIpfsHash)\n   {\n      if(_id >= proposals.length) {\n         return;\n      }\n      TrialProposal memory tp = proposals[_id];\n      tp.ipfsHash = _docHash;\n      _docIpfsHash = tp.ipfsHash;\n      UploadTrialProtocol(msg.sender,tp.ipfsHash,block.timestamp);\n   }\n\n   function getProposalsCount() constant returns (uint _counter)\n   {\n      _counter = proposals.length;\n   }\n\n   function getProposalById(uint32 _id) constant returns(address _croAddr, bytes32 _drugName, uint32 _startDate, uint32 _endDate, bytes _ipfsHash, int _status, address _trial,uint256 _proposals_Length,bytes32 _patientDetails) {\n      if(_id >= proposals.length) {\n         return;\n      }\n      TrialProposal memory tp = proposals[_id];\n      _croAddr = tp.croAddr;\n      _drugName = tp.drugName;\n      _startDate = tp.startDate;\n      _endDate = tp.endDate;\n      _ipfsHash = tp.ipfsHash;\n      _status = tp.status;\n      //_trial = tp.trial;\n      _proposals_Length= proposals.length;\n      _patientDetails = tp.patientDetails;\n   }\n\n\n\n   /*Get the proposed claim for user*/\n   function claim_getProposalById(uint32 _id) constant returns(address _croAddr, bytes32 _drugName, uint32 _startDate, uint32 _endDate, bytes _ipfsHash, int _status, address _trial,uint256 _proposals_Length,bytes32 _patientDetails) {\n         if(_id >= proposals.length) {\n            return;\n         }\n         TrialProposal memory tp = proposals[_id];\n         Patient_Info_cost memory tp1= cost_of_claim_patient[_id];\n         _croAddr = tp.croAddr;\n         _drugName = tp.drugName;\n         _startDate = tp.startDate;\n         _endDate = tp.endDate;\n         _ipfsHash = tp.ipfsHash;\n         _status = tp.status;\n          _patientDetails = tp.patientDetails;\n         //_trial = tp.trial;\n        /* _proposals_Length= proposals.length;\n\n         _diseaseDiagonised= tp1.diseases;\n         _diseaseCovered= tp1.cost_per_disease;\n         _spell_disease_covered= tp1.spell_per_disease;\n         _cost_per_day= tp1.cost_per_day;\n         _room_rent= tp1.room_rent;\n         _stay_in_hospital= tp1.days_stayed_in_hospital;\n         */\n\n      }\n\n      function claim_Patient_cost_getProposalById(uint32 _id) constant returns(bytes16 _diseaseDiagonised,bytes16 _diseaseCovered,bytes16 _spell_disease_covered,bytes16 _cost_per_day,bytes16 _room_rent,bytes16 _stay_in_hospital) {\n               if(_id >= proposals.length) {\n                  return;\n               }\n\n               Patient_Info_cost memory tp1= cost_of_claim_patient[_id];\n\n               _diseaseDiagonised = tp1.diseases;\n               _diseaseCovered = tp1.cost_per_disease;\n               _spell_disease_covered = tp1.spell_per_disease;\n               _cost_per_day = tp1.cost_per_day;\n               _room_rent = tp1.room_rent;\n               _stay_in_hospital = tp1.days_stayed_in_hospital;\n            }\n\n\n\n   function getProposalOfSubmittedPolicy(uint32 _id) constant returns(address _customer,bytes32 _customerName,uint32 _dob,bytes32 _age,bytes32 _Occupation,int _status,\n   bytes32 _gender,bytes32 _martialStatus,bytes32 policyType,bytes32 term,bytes32 sumassured,bytes32 DiseaseCovered)\n   {\n     /*   if(_id >= customers.length)\n        {\n            return;\n        }\n        */\n        CustomerInfo memory policyholder= customersData[_id];\n        _customer= policyholder.customerAddr;\n        _customerName= policyholder.name;\n        _dob= policyholder.DOB;\n        _age= policyholder.age;\n        _Occupation= policyholder.occupation;\n        _status= policyholder.status;\n        _gender= policyholder.gender;\n        _martialStatus= policyholder.MartialStatus;\n        policyType= policyholder.policyType;\n        term= policyholder.term;\n        sumassured= policyholder.sumassured;\n        DiseaseCovered= policyholder.diseasecovered;\n   }\n\n   /*Acceptance of submitted policy*/\n\n   function acceptProposalOfSubmittedPolicy(uint _id)\n   {\n        if(_id >= customersData_By_Agent.length)\n        {\n            throw;\n        }\n        CustomerInfo_Submitted_By_Agent memory tp= customersData_By_Agent[_id];\n      /*  if(tp.status == STATUS_ACCEPTED)\n        {\n            throw;\n        }\n       */\n        customersData_By_Agent[_id].status= STATUS_ACCEPTED;\n        AcceptedProposalOfSubmittedPolicy(msg.sender,\"Accepted\",block.timestamp);\n   }\n\n   /*Details submitted by the agent and putting all them in ipfs Hash*/\n   function agent_submitting_customer_policy(bytes JsonHash )\n   {\n\n        CustomerInfo_Submitted_By_Agent memory proposal;// customersData_By_Agent\n        proposal.customerAddr= msg.sender;\n          proposal.status=  STATUS_SUBMITTED; // values: SUBMITTED, ACCEPTED, REJECTED\n        proposal.hash_of_data= JsonHash;\n\n        customersData_By_Agent.push(proposal);\n        //CustomerPolicySubmitted(msg.sender,\"Proposal Submitted By Agent\",block.timestamp);\n        CustomerPolicySubmitted_agent(msg.sender,proposal.hash_of_data,block.timestamp);\n\n   }\n   /*Retreiving the detials of the customer submitted by the agent to the requestee*/\n   function getProposalofSubmittedPolicy_agent(uint32 _id) constant returns(address _customer,bytes hash,int _status)\n   {\n        CustomerInfo_Submitted_By_Agent memory tp= customersData_By_Agent[_id];\n        _customer= tp.customerAddr;\n        _status= tp.status;\n        hash= tp.hash_of_data;\n\n\n   }\n\n   /*Retreive the Details of the Emergency*/\n   /*function getProposalofSubmittedEmergency_Details(uint32 _id) constant returns(address _customer,bytes32 hash,int _status)\n   {\n         ProposalAccepted (msg.sender,\"sairam\",block.timestamp);\n\n        Emergency_Information memory tp= EmergencyData[_id];\n        _customer= tp.customerAddr;\n        hash= tp.hash_of_data;\n        _status= tp.status;\n   }*/\n\n\n /*  function acceptProposal(uint _id) constant returns (address _clinicalTrial) {\n\n      if(_id >= proposals.length) {\n         throw;\n      }\n\n      TrialProposal memory tp = proposals[_id];\n      if(tp.status == STATUS_ACCEPTED) {\n         throw;\n      }\n\n      // deploy the actual clinical trial contract and return it\n      ClinicalTrial trial = new ClinicalTrial(owner, tp.croAddr, _id, tp.startDate, tp.endDate, tp.drugName, tp.ipfsHash);\n\n      proposals[_id].trial = trial;\n      proposals[_id].status = STATUS_ACCEPTED;\n\n      _clinicalTrial = proposals[_id].trial;\n\n      ProposalAccepted (msg.sender,tp.drugName,block.timestamp);\n      //ProposalAccepted (msg.sender,balances[msg.sender],block.timestamp);\n      ClinicalTrialContractDeployed(msg.sender,\"Mined\",block.timestamp);\n\n   }*/\n\n\n\n      function acceptProposal_for_Pharmacy(address _sender,uint _amount) public payable\n      {\n        uint _id= 0;\n       /* if(_id >= customersData_By_Agent.length)\n        {\n            throw;\n        }\n        */\n          //CustomerInfo_Submitted_By_Agent memory tp= customersData_By_Agent[_id];\n         //CustomerInfo_Submitted_By_Agent memory tp= customersData_By_Agent[0];\n         //if(tp.status == STATUS_ACCEPTED)\n           // throw;\n         //tp.customerAddr.transfer(msg.value);\n         //customersData_By_Agent[_id].status= STATUS_ACCEPTED;\n           address customerAddress= 0xcAe8262759Fa5bd5E6Bc3aA266598f55A81024D4;\n                  //tp.customerAddr.transfer(msg.value);\n                  customerAddress.transfer(msg.value);\n                  ProposalAccepted_Emergency(msg.sender,\"Pharmacy Amount Transferred\",block.timestamp);\n         //ProposalAccepted (msg.sender,\"Transferred\",block.timestamp);\n      }\n\n      function acceptProposal_for_Emergency(address _sender,uint _amount) public payable\n      {\n       // uint _id= 0;\n       // if(_id >= customersData_By_Agent.length)\n         //   throw;\n         //CustomerInfo_Submitted_By_Agent memory tp= customersData_By_Agent[0];\n         address customerAddress= 0xcAe8262759Fa5bd5E6Bc3aA266598f55A81024D4;\n         //tp.customerAddr.transfer(msg.value);\n         customerAddress.transfer(msg.value);\n         ProposalAccepted_Emergency(msg.sender,\"Emergency Amount Transferred\",block.timestamp);\n      }\n      /*Emergency Details*/\n\n      function EmergencyDetails(address _sender,bytes32 completeDetails )\n         {\n\n              Emergency_Information memory proposal;// customersData_By_Agent\n              proposal.customerAddr= msg.sender;\n                proposal.status=  STATUS_SUBMITTED; // values: SUBMITTED, ACCEPTED, REJECTED\n              proposal.hash_of_data= completeDetails;\n\n              EmergencyData.push(proposal);\n              ProposalAccepted(msg.sender,\"Emergency\",block.timestamp);\n\n              //CustomerPolicySubmitted_agent(msg.sender,proposal.hash_of_data,block.timestamp);\n\n         }\n\n\n      function acceptProposal1(address _sender,uint _amount) public payable\n      {\n          uint _id=0;\n          if(_id >= proposals.length)\n          {\n                   throw;\n          }\n           TrialProposal memory tp = proposals[0];\n           if(tp.status == STATUS_ACCEPTED) {\n                        throw;\n                     }\n           balances[msg.sender] -= _amount;\n           //balances[tp.croAddr] += _amount;\n           tp.croAddr.transfer(msg.value);\n           uint value= msg.value;\n           proposals[_id].status = STATUS_ACCEPTED;\n           ProposalAccepted (msg.sender,\"Transferred via TPA\",block.timestamp);\n\n\n      }\n\n      //function transfer()\n\n   /* 'constant' prevents function from editing state variables; */\n      function getBalance(address _receiver) constant returns(uint256){\n          return balances[_receiver];\n      }\n  /*    function acceptProposal(uint _id) constant returns (address _clinicalTrail) {\n\n          if(_id >= proposals.length) {\n             throw;\n          }\n\n          TrialProposal memory tp = proposals[_id];\n          if(tp.status == STATUS_ACCEPTED) {\n             throw;\n          }\n\n          // deploy the actual clinical trial contract and return it\n          //let this class go and fetch the amoun of the hospital\n          ClinicalTrial trial = new ClinicalTrial(owner, tp.croAddr, _id, tp.startDate, tp.endDate, tp.drugName, tp.ipfsHash);\n\n          proposals[_id].trial = trial;\n          proposals[_id].status = STATUS_ACCEPTED;\n\n          _clinicalTrial = proposals[_id].trial;\n\n          //balances[tp.croAddr]\n          ProposalAccepted (msg.sender,tp.drugName,block.timestamp);\n          ClinicalTrialContractDeployed(msg.sender,\"Mined\",block.timestamp);\n       }*/\n\n   function rejectProposal(uint _id) {\n\n      if(_id >= proposals.length) {\n         throw;\n      }\n\n      proposals[_id].status = STATUS_REJECTED;\n\n      TrialProposal memory tp = proposals[_id];\n      ProposalRejected (tp.croAddr, tp.drugName, _id);\n   }\n\n   function submitCro(bytes32 _name, bytes32 _url) {\n      CroIdentity memory cro;\n      cro.name   = _name;\n      cro.url    = _url;\n      cro.addr   = msg.sender;\n      cro.status = STATUS_SUBMITTED;\n\n      cros.push(cro);\n\n      AddCRO(msg.sender,cro.name,block.timestamp);\n   }\n\n   function changeCroStatus(address _addr, uint8 _status) {\n      for(uint32 i=0; i<cros.length; i++) {\n         if(cros[i].addr == _addr) {\n            cros[i].status = _status;\n            if(cros[i].status == STATUS_ACCEPTED)\n            {\n               UpdateCROStatus(msg.sender,\"Approved\",block.timestamp);\n            }\n            else\n            {\n               UpdateCROStatus(msg.sender,\"Rejected\",block.timestamp);\n            }\n            break;\n         }\n      }\n\n   }\n\n   function getCrosCounter() constant returns (uint _counter) {\n      _counter = cros.length;\n   }\n\n   function getCroById(uint _id) constant returns(bytes32 _name, bytes32 _url, address _addr, int _status) {\n\n      if(_id >= cros.length) {\n         throw;\n      }\n\n      CroIdentity memory ci = cros[_id];\n      _name = ci.name;\n      _url  = ci.url;\n      _addr = ci.addr;\n      _status = ci.status;\n   }\n\n   function verifySignature(bytes32 r,bytes32 s,uint8 v,bytes32 hash) constant returns(address)\n   {\n        bytes memory prefix = \"\\x19Ethereum Signed Message:\\n32\";\n         //bytes32 prefixedHash = keccak256(prefix, hash);\n         bytes32 prefixedHash = sha3(prefix, hash);\n        return ecrecover(hash,v,r,s);\n        //address signer = prefixedHash.toEthSignedMessage().recover(prefixedHash,v,r,s);\n        //return ecrecover(prefixedHash,v,r,s);\n          //   return (ecrecover(prefixedHash, v, r, s));\n\n        //SigVerification(msg.sender,signer,block.timestamp);\n       // return signer;\n   }\n   /*\n         function validate(address makerAddress, uint makerAmount, address makerToken,\n                              address takerAddress, uint takerAmount, address takerToken,\n                              uint256 expiration, uint256 nonce, uint8 v, bytes32 r, bytes32 s) private returns (bytes32) {\n\n                // Hash arguments to identify the order.\n                bytes32 hashV = keccak256(makerAddress, makerAmount, makerToken,\n                    takerAddress, takerAmount, takerToken,\n                    expiration, nonce);\n\n                bytes memory prefix = \"\\x19Ethereum Signed Message:\\n32\";\n                bytes32 prefixedHash = sha3(prefix, hashV);\n\n                require(ecrecover(prefixedHash, v, r, s) == makerAddress);\n\n        return hashV;\n   */\n}\n",
  "sourcePath": "/home/shrravan/2ndMtech/Insurance/election-master/contracts/Regulator.sol",
  "compiler": {
    "name": "solc",
    "version": "0.4.24+commit.e67f0147.Emscripten.clang"
  },
  "schemaVersion": "2.0.1",
  "updatedAt": "2019-03-10T05:38:17.354Z"
}